{
  "contractName": "Election",
  "abi": [
    {
      "constant": true,
      "inputs": [],
      "name": "candidatesCount",
      "outputs": [
        {
          "name": "",
          "type": "uint256"
        }
      ],
      "payable": false,
      "stateMutability": "view",
      "type": "function",
      "signature": "0x2d35a8a2"
    },
    {
      "constant": true,
      "inputs": [
        {
          "name": "",
          "type": "uint256"
        }
      ],
      "name": "candidates",
      "outputs": [
        {
          "name": "id",
          "type": "uint256"
        },
        {
          "name": "name",
          "type": "string"
        },
        {
          "name": "voteCount",
          "type": "uint256"
        }
      ],
      "payable": false,
      "stateMutability": "view",
      "type": "function",
      "signature": "0x3477ee2e"
    },
    {
      "constant": true,
      "inputs": [
        {
          "name": "",
          "type": "uint256"
        }
      ],
      "name": "arr",
      "outputs": [
        {
          "name": "",
          "type": "address"
        }
      ],
      "payable": false,
      "stateMutability": "view",
      "type": "function",
      "signature": "0x71e5ee5f"
    },
    {
      "constant": true,
      "inputs": [
        {
          "name": "",
          "type": "address"
        }
      ],
      "name": "eligibleAddresses",
      "outputs": [
        {
          "name": "",
          "type": "bool"
        }
      ],
      "payable": false,
      "stateMutability": "view",
      "type": "function",
      "signature": "0x85af4649"
    },
    {
      "constant": true,
      "inputs": [
        {
          "name": "",
          "type": "address"
        }
      ],
      "name": "voters",
      "outputs": [
        {
          "name": "",
          "type": "bool"
        }
      ],
      "payable": false,
      "stateMutability": "view",
      "type": "function",
      "signature": "0xa3ec138d"
    },
    {
      "inputs": [],
      "payable": false,
      "stateMutability": "nonpayable",
      "type": "constructor",
      "signature": "constructor"
    },
    {
      "constant": false,
      "inputs": [
        {
          "name": "_candidateId",
          "type": "uint256"
        }
      ],
      "name": "vote",
      "outputs": [],
      "payable": false,
      "stateMutability": "nonpayable",
      "type": "function",
      "signature": "0x0121b93f"
    }
  ],
  "bytecode": "0x608060405234801561001057600080fd5b506100286100c7640100000000026401000000009004565b6100756040805190810160405280600b81526020017f43616e64696461746520310000000000000000000000000000000000000000008152506102e0640100000000026401000000009004565b6100c26040805190810160405280600b81526020017f43616e64696461746520320000000000000000000000000000000000000000008152506102e0640100000000026401000000009004565b610402565b600180600073322a9be4b2fa5d44c851e0d6f03ebc7299eaa74873ffffffffffffffffffffffffffffffffffffffff1673ffffffffffffffffffffffffffffffffffffffff16815260200190815260200160002060006101000a81548160ff0219169083151502179055506001806000732510344f7c98ad1737d2e3145f5b2f32d4886c8f73ffffffffffffffffffffffffffffffffffffffff1673ffffffffffffffffffffffffffffffffffffffff16815260200190815260200160002060006101000a81548160ff021916908315150217905550600180600073a3bd30d5b67ab023661e238e95baabdcac9382bf73ffffffffffffffffffffffffffffffffffffffff1673ffffffffffffffffffffffffffffffffffffffff16815260200190815260200160002060006101000a81548160ff021916908315150217905550600180600073f0f04ef63c8311092319dcc1f48f0959eaa0481573ffffffffffffffffffffffffffffffffffffffff1673ffffffffffffffffffffffffffffffffffffffff16815260200190815260200160002060006101000a81548160ff0219169083151502179055506001806000734d6b457c33252cf4d23f4ae0a4583eb44450e9fb73ffffffffffffffffffffffffffffffffffffffff1673ffffffffffffffffffffffffffffffffffffffff16815260200190815260200160002060006101000a81548160ff021916908315150217905550565b6004600081548092919060010191905055506060604051908101604052806004548152602001828152602001600081525060026000600454815260200190815260200160002060008201518160000155602082015181600101908051906020019061034c92919061035d565b506040820151816002015590505050565b828054600181600116156101000203166002900490600052602060002090601f016020900481019282601f1061039e57805160ff19168380011785556103cc565b828001600101855582156103cc579182015b828111156103cb5782518255916020019190600101906103b0565b5b5090506103d991906103dd565b5090565b6103ff91905b808211156103fb5760008160009055506001016103e3565b5090565b90565b61067f806104116000396000f3fe608060405260043610610078576000357c0100000000000000000000000000000000000000000000000000000000900463ffffffff1680630121b93f1461007d5780632d35a8a2146100b85780633477ee2e146100e357806371e5ee5f146101a557806385af464914610220578063a3ec138d14610289575b600080fd5b34801561008957600080fd5b506100b6600480360360208110156100a057600080fd5b81019080803590602001909291905050506102f2565b005b3480156100c457600080fd5b506100cd61050d565b6040518082815260200191505060405180910390f35b3480156100ef57600080fd5b5061011c6004803603602081101561010657600080fd5b8101908080359060200190929190505050610513565b6040518084815260200180602001838152602001828103825284818151815260200191508051906020019080838360005b8381101561016857808201518184015260208101905061014d565b50505050905090810190601f1680156101955780820380516001836020036101000a031916815260200191505b5094505050505060405180910390f35b3480156101b157600080fd5b506101de600480360360208110156101c857600080fd5b81019080803590602001909291905050506105d5565b604051808273ffffffffffffffffffffffffffffffffffffffff1673ffffffffffffffffffffffffffffffffffffffff16815260200191505060405180910390f35b34801561022c57600080fd5b5061026f6004803603602081101561024357600080fd5b81019080803573ffffffffffffffffffffffffffffffffffffffff169060200190929190505050610613565b604051808215151515815260200191505060405180910390f35b34801561029557600080fd5b506102d8600480360360208110156102ac57600080fd5b81019080803573ffffffffffffffffffffffffffffffffffffffff169060200190929190505050610633565b604051808215151515815260200191505060405180910390f35b600360003373ffffffffffffffffffffffffffffffffffffffff1673ffffffffffffffffffffffffffffffffffffffff16815260200190815260200160002060009054906101000a900460ff1615151561038f576040517f08c379a0000000000000000000000000000000000000000000000000000000008152600401808060200182810382526000815260200160200191505060405180910390fd5b600160003373ffffffffffffffffffffffffffffffffffffffff1673ffffffffffffffffffffffffffffffffffffffff16815260200190815260200160002060009054906101000a900460ff16151561042b576040517f08c379a0000000000000000000000000000000000000000000000000000000008152600401808060200182810382526000815260200160200191505060405180910390fd5b60008111801561043d57506004548111155b151561048c576040517f08c379a0000000000000000000000000000000000000000000000000000000008152600401808060200182810382526000815260200160200191505060405180910390fd5b6001600360003373ffffffffffffffffffffffffffffffffffffffff1673ffffffffffffffffffffffffffffffffffffffff16815260200190815260200160002060006101000a81548160ff021916908315150217905550600260008281526020019081526020016000206002016000815480929190600101919050555050565b60045481565b6002602052806000526040600020600091509050806000015490806001018054600181600116156101000203166002900480601f0160208091040260200160405190810160405280929190818152602001828054600181600116156101000203166002900480156105c55780601f1061059a576101008083540402835291602001916105c5565b820191906000526020600020905b8154815290600101906020018083116105a857829003601f168201915b5050505050908060020154905083565b6000818154811015156105e457fe5b906000526020600020016000915054906101000a900473ffffffffffffffffffffffffffffffffffffffff1681565b60016020528060005260406000206000915054906101000a900460ff1681565b60036020528060005260406000206000915054906101000a900460ff168156fea165627a7a72305820ae41d51613d785fd63b8d496e0939471f16d27e789a3e2e5961e511bad8cf78c0029",
  "source": "pragma solidity ^0.5.0;\n\ncontract Election {\n    struct Candidate {\n        uint id;\n        string name;\n        uint voteCount;\n    }\n    address[] public arr;\n    // Read/write Candidates\n    mapping(address => bool) public eligibleAddresses;\n    mapping(uint => Candidate) public candidates;\n    mapping(address => bool) public voters;\n\n    // Store Candidates Count\n    uint public candidatesCount;\n\n    // Constructor\n    constructor() public {\n        initializeMap();\n        addCandidate(\"Candidate 1\");\n        addCandidate(\"Candidate 2\");\n    }\n\n    function initializeMap() private{\n        eligibleAddresses[0x322a9BE4b2FA5d44C851e0D6F03eBC7299Eaa748] = true;\n        eligibleAddresses[0x2510344f7c98Ad1737d2E3145f5b2f32D4886c8f] = true;\n        eligibleAddresses[0xA3Bd30d5b67AB023661E238E95baAbDCAc9382BF] = true;\n        eligibleAddresses[0xF0f04eF63C8311092319DCc1f48f0959eAA04815] = true;\n        eligibleAddresses[0x4d6b457c33252Cf4d23F4aE0A4583EB44450E9Fb] = true;\n    }\n\n    function addCandidate (string memory _name) private {\n        candidatesCount ++;\n        candidates[candidatesCount] = Candidate(candidatesCount, _name, 0);\n    }\n\n    function vote (uint _candidateId) public {\n        // require that they haven't voted before\n        require(!voters[msg.sender], \"\");\n        require(eligibleAddresses[msg.sender],\"\");\n        // require a valid candidate\n        require(_candidateId > 0 && _candidateId <= candidatesCount, \"\");\n\n        // record that voter has voted\n        voters[msg.sender] = true;\n\n        // update candidate vote Count\n        candidates[_candidateId].voteCount ++;\n    }\n}",
  "sourcePath": "/Users/skumar/Documents/projects/election/contracts/Election.sol",
  "compiler": {
    "name": "solc",
    "version": "0.5.0+commit.1d4f565a.Emscripten.clang"
  },
  "schemaVersion": "3.0.1",
  "updatedAt": "2019-03-28T11:36:46.003Z",
  "devdoc": {
    "methods": {}
  },
  "userdoc": {
    "methods": {}
  }
}